:100000000C9434000C9449000C9449000C94490061
:100010000C9449000C9449000C9449000C9449003C
:100020000C9449000C9449000C9449000C9449002C
:100030000C9449000C9449000C9449000C9449001C
:100040000C9449000C9449000C9449000C9449000C
:100050000C9449000C9449000C9449000C944900FC
:100060000C9449000C94490011241FBECFEFD8E036
:10007000DEBFCDBF11E0A0E0B1E0E4EFF0E002C0F0
:1000800005900D92A031B107D9F70E944B000C9456
:1000900078000C9400001092C50087E68093C4009D
:1000A0008091C0008D7F8093C00088E18093C10063
:1000B00086E08093C20080E0E82FF0E0E050FF4F40
:1000C000908191110DC08091C00087FFFCCF80917D
:1000D000C6009091C00095FFFCCF8093C600F3CF7F
:1000E0002091C00025FFFCCF9093C6008F5FE4CF26
:0400F000F894FFCFB2
:1000F40048656C6C6F20576F726C64210D0A0000A8
:00000001FF
