:100000000C9434000C9449000C9449000C94490061
:100010000C9449000C9449000C9449000C9449003C
:100020000C9449000C9449000C9449000C9449002C
:100030000C9449000C9449000C9449000C9449001C
:100040000C9449000C9449000C9449000C9449000C
:100050000C9449000C9452000C9449000C944900F3
:100060000C9449000C94490011241FBECFEFD8E036
:10007000DEBFCDBF11E0A0E0B1E0EEEFF7E002C0DF
:1000800005900D92A831B107D9F70E9453000C9446
:10009000FD030C9400009091C00095FFFCCF80936D
:1000A000C60008951895CF93DF9300D000D0CDB748
:1000B000DEB71092C50087E68093C4008091C0002F
:1000C0008D7F8093C00088E18093C10086E080939B
:1000D000C200F12CEF2DF0E0E050FF4F8081811144
:1000E000FFC080917C00856080937C0080917C00C3
:1000F000806480937C0080917A00866080937A008F
:1001000080917A00806880937A0083B7817F8260D3
:1001100083BF80917A00886080937A00789480E130
:1001200070E060E093B7916093BF889593B79E7F2E
:1001300093BF2091780030917900620F731F815036
:1001400089F7769567957695679590E080E00E94AF
:10015000860227EC3BE447E450E40E946C032DE266
:1001600032EB41EA50E40E946C0320E030E040E8CA
:1001700059E30E946C0320E030E048EC52E40E9416
:100180006C030E94D90320E030E048EC52E40E9466
:10019000E5016B017C0120E030E040E251E40E9487
:1001A000E5014B015C0120E030E040E452E40E94B4
:1001B00079010E945702862F0E944B00C501B401AD
:1001C0000E94C3022B013C0120E030E040E452E4F5
:1001D000C701B6010E9479014B015C0120E030E0CB
:1001E00040E251E4C301B2010E946C039B01AC01E7
:1001F000C501B4010E9478010E945702862F0E9417
:100200004B008EE20E944B0020E030E040E251E4DF
:10021000C701B6010E946C034B015C01C701B60126
:100220000E94C3022B013C0120E030E040E452E494
:10023000C501B4010E94790169837A838B839C8311
:1002400020E030E040E251E4C301B2010E946C03BF
:100250009B01AC0169817A818B819C810E9478012C
:100260000E945702862F0E944B00C501B4010E94D4
:10027000C3024B015C0120E030E048EC52E4C701CE
:10028000B6010E946C0320E030E040E452E40E949A
:1002900079016B017C0120E030E040E251E4C501CE
:1002A000B4010E946C039B01AC01C701B6010E941E
:1002B00078010E945702862F0E944B00F12CEF2DEF
:1002C000F0E0EB5EFE4F808181110EC02FEF89E6DA
:1002D00098E1215080409040E1F700C000001FCF1E
:1002E0000E944B00F394F6CE0E944B00F394E7CFAC
:1002F0005058BB27AA270E9490010C941A030E9411
:100300000C0338F00E94130320F039F49F3F19F4D6
:1003100026F40C9409030EF4E095E7FB0C94DA0242
:10032000E92F0E942B0358F3BA176207730784075B
:10033000950720F079F4A6F50C9465030EF4E0958A
:100340000B2EBA2FA02D0B01B90190010C01CA018F
:10035000A0011124FF27591B99F0593F50F4503E3A
:1003600068F11A16F040A22F232F342F4427585F2C
:10037000F3CF469537952795A795F0405395C9F744
:100380007EF41F16BA0B620B730B840BBAF09150FC
:10039000A1F0FF0FBB1F661F771F881FC2F70EC09B
:1003A000BA0F621F731F841F48F48795779567956E
:1003B000B795F7959E3F08F0B0CF9395880F08F05A
:1003C0009927EE0F9795879508950E94F9010C944F
:1003D0001A030E94130358F00E940C0340F029F402
:1003E0005F3F29F00C94DA0251110C9466030C94CF
:1003F00009030E942B0368F39923B1F3552391F36A
:10040000951B550BBB27AA2762177307840738F083
:100410009F5F5F4F220F331F441FAA1FA9F335D0E0
:100420000E2E3AF0E0E832D091505040E695001C94
:10043000CAF72BD0FE2F29D0660F771F881FBB1F4E
:10044000261737074807AB07B0E809F0BB0B802D2C
:10045000BF01FF2793585F4F3AF09E3F510578F058
:100460000C94DA020C9466035F3FE4F3983ED4F3F5
:10047000869577956795B795F7959F5FC9F7880F2C
:10048000911D9695879597F90895E1E0660F771F7E
:10049000881FBB1F621773078407BA0720F0621B0F
:1004A000730B840BBA0BEE1F88F7E09508950E943A
:1004B000330388F09F5798F0B92F9927B751B0F0C0
:1004C000E1F0660F771F881F991F1AF0BA95C9F7D8
:1004D00014C0B13091F00E946503B1E008950C940E
:1004E0006503672F782F8827B85F39F0B93FCCF3C1
:1004F000869577956795B395D9F73EF49095809555
:10050000709561957F4F8F4F9F4F0895E89409C074
:1005100097FB3EF490958095709561957F4F8F4F36
:100520009F4F9923A9F0F92F96E9BB279395F6954C
:10053000879577956795B795F111F8CFFAF4BB0FCA
:1005400011F460FF1BC06F5F7F4F8F4F9F4F16C02E
:10055000882311F096E911C0772321F09EE8872FB8
:10056000762F05C0662371F096E8862F70E060E074
:100570002AF09A95660F771F881FDAF7880F9695ED
:10058000879597F908950E944D0390F09F3748F49E
:10059000911116F00C94660360E070E080E89FEB28
:1005A000089526F41B16611D711D811D0C94E00237
:1005B0000C94FB0297F99F6780E870E060E0089573
:1005C000882371F4772321F09850872B762F07C06A
:1005D000662311F499270DC09051862B70E060E0DE
:1005E0002AF09A95660F771F881FDAF7880F96957D
:1005F000879597F908959F3F31F0915020F48795A2
:1006000077956795B795880F911D9695879597F97A
:1006100008959FEF80EC089500240A94161617069B
:1006200018060906089500240A94121613061406E3
:1006300005060895092E0394000C11F4882352F046
:10064000BB0F40F4BF2B11F460FF04C06F5F7F4FFE
:100650008F4F9F4F089557FD9058440F551F59F0E5
:100660005F3F71F04795880F97FB991F61F09F3F9F
:1006700079F087950895121613061406551FF2CFC8
:100680004695F1DF08C0161617061806991FF1CF18
:10069000869571056105089408950E943303A0F0C2
:1006A000BEE7B91788F4BB279F3860F41616B11D52
:1006B000672F782F8827985FF7CF8695779567956E
:1006C000B11D93959639C8F30895E894BB27662722
:1006D0007727CB0197F908950E947F030C941A03A2
:1006E0000E940C0338F00E94130320F0952311F0B0
:1006F0000C94DA020C94090311240C9466030E94F2
:100700002B0370F3959FC1F3950F50E0551F629F27
:10071000F001729FBB27F00DB11D639FAA27F00D5A
:10072000B11DAA1F649F6627B00DA11D661F829F81
:100730002227B00DA11D621F739FB00DA11D621F66
:10074000839FA00D611D221F749F3327A00D611D83
:10075000231F849F600D211D822F762F6A2F112465
:100760009F5750409AF0F1F088234AF0EE0FFF1F98
:10077000BB1F661F771F881F91505040A9F79E3FEF
:10078000510580F00C94DA020C9466035F3FE4F3A9
:10079000983ED4F3869577956795B795F795E79545
:1007A0009F5FC1F7FE2B880F911D9695879597F94E
:1007B00008950E943303E8F09E37E8F09639B8F4C4
:1007C0009E3848F4672F782F8827985FF9CF869551
:1007D0007795679593959539D0F3B62FB1706B0FD8
:1007E000711D811D20F487957795679593950C94DD
:0E07F000E0020C94FB020C946603F894FFCF19
:1007FE000D0A4469676974616C20566F6C746D657F
:08080E007465720D0A0D0A0069
:00000001FF
